:100000000C9456000C9475000C9475000C947500BB
:100010000C9475000C9475000C9475000C9475008C
:100020000C9475000C9475000C9475000C9475007C
:100030000C9475000C94EE000C9475000C947500F3
:100040000C9475000C9475000C9475000C9475005C
:100050000C9475000C9475000C9475000C9475004C
:100060000C9475000C9475000C9475000C9475003C
:100070000C9475000C9475000C9475000C9475002C
:100080000C9475000C9475000C9475009E01AA01E7
:10009000CC02D302EE015002B202DA02FB020103EB
:1000A00012031E0306030C0306032A0311241FBEBA
:1000B000CFEFD0E4DEBFCDBF11E0A0E0B1E0E8EDCE
:1000C000F6E000E00BBF02C007900D92A231B1072D
:1000D000D9F721E0A2E1B1E001C01D92AD31B20734
:1000E000E1F70E9435030C946A030C940000CF934F
:1000F000DF9300D01F92CDB7DEB789837B836A83FD
:1001000089818A3031F48A819B81BC018DE00E9413
:10011000770080EC90E0FC018081882F90E0807275
:100120009927892BB1F386EC90E02981FC0120838B
:1001300080E090E00F900F900F90DF91CF910895A5
:10014000CF93DF93CDB7DEB781E890E02BE0FC01E1
:10015000208388E890E02DE730E0FC0131832083A4
:100160008FE690E022E0FC01208384E890E0FC012F
:100170001182108280910E0190910F01A0911001C7
:10018000B09111018093130190931401A093150174
:10019000B09316018FE590E02FE530E0F901208162
:1001A0002068FC0120830000DF91CF910895CF9358
:1001B000DF93CDB7DEB781E890E0FC01108200004C
:1001C000DF91CF910895CF93DF93CDB7DEB781E074
:1001D000809312010000DF91CF9108951F920F923A
:1001E00000905F000F92112400905B000F922F93FC
:1001F0003F934F935F936F937F938F939F93AF93AF
:10020000BF93EF93FF93CF93DF93CDB7DEB780918A
:10021000130190911401A0911501B091160101975D
:10022000A109B1098093130190931401A0931501C2
:10023000B09316018091130190911401A0911501C2
:10024000B0911601892B8A2B8B2B91F40E94E3002D
:1002500080910E0190910F01A0911001B0911101B8
:100260008093130190931401A0931501B09316018C
:100270000000DF91CF91FF91EF91BF91AF919F91DE
:100280008F917F916F915F914F913F912F910F903F
:1002900000925B000F9000925F000F901F901895E6
:1002A000CF93DF9300D000D0CDB7DEB769837A83D8
:1002B0008B839C8389819A81AB81BC8180930E0161
:1002C00090930F01A0931001B093110180910E0142
:1002D00090910F01A0911001B09111018093130131
:1002E00090931401A0931501B093160100000F9094
:1002F0000F900F900F90DF91CF910895CF93DF93E0
:100300001F92CDB7DEB783E290E0FC018081898344
:1003100080911A0190911B01CC01A0E0B0E040E077
:1003200050E027E030E0841B950B2817390708F4CC
:1003300048C18A5B9F4FFC010C94610381E090E00F
:1003400090931B0180931A0185E290E027E0FC0165
:1003500020833CC180E290E0FC018081882F90E006
:100360008095909583709927019791F485E290E0AC
:10037000FC018081893060F482E090E090931B0161
:1003800080931A0180911C018F5F80931C0125C00E
:1003900080E290E0FC018081882F90E0809590952C
:1003A00083709927029791F485E290E0FC018081A7
:1003B000882361F083E090E090931B0180931A0101
:1003C000809119018F5F8093190107C081E090E04F
:1003D00090931B0180931A01F9C0F8C080E290E06D
:1003E000FC018081882F90E08095909583709927FB
:1003F0000197F9F485E290E0FC018081893039F4BD
:1004000081E090E090931B0180931A01DFC08091FE
:1004100017018B3038F082E090E090931B018093BD
:100420001A01D4C084E090E090931B0180931A01DC
:10043000CDC080E290E0FC018081882F90E0809523
:10044000909583709927029761F483E090E09093F0
:100450001B0180931A01809119018F5F809319010C
:10046000B5C080E290E0FC018081882F90E080950B
:10047000909583709927039761F4809119018F5F9C
:100480008093190187E090E090931B0180931A01FB
:100490009DC081E090E090931B0180931A0196C06B
:1004A00080E290E0FC018081882F90E0809590951B
:1004B000837099270297F9F485E290E0FC0180812E
:1004C000882339F481E090E090931B0180931A0116
:1004D0007DC0809118018B3038F083E090E09093DC
:1004E0001B0180931A0172C085E090E090931B017C
:1004F00080931A016BC080E290E0FC018081882F1C
:1005000090E08095909583709927019761F482E03F
:1005100090E090931B0180931A0180911C018F5FE2
:1005200080931C0153C080E290E0FC018081882F01
:1005300090E08095909583709927039761F480915E
:100540001C018F5F80931C0187E090E090931B015A
:1005500080931A013BC081E090E090931B0180934F
:100560001A0134C080E290E0FC018081882F90E085
:100570008095909583709927892B39F481E090E0DC
:1005800090931B0180931A0121C086E090E0909324
:100590001B0180931A011AC084E090E090931B0124
:1005A00080931A0113C085E090E090931B01809323
:1005B0001A010CC086E090E090931B0180931A0111
:1005C00005C010921B0110921A01000080911A01BF
:1005D00090911B01CC01A0E0B0E040E050E027E0AA
:1005E00030E0841B950B28173907C8F1825B9F4FB9
:1005F000FC010C94610385E290E027E0FC0120837C
:100600002FC010921701109218012AC08091170173
:100610008F5F8093170124C0809118018F5F8093B2
:1006200018011EC081E08093170189818F5F898343
:1006300085E290E02981FC01208312C081E0809353
:10064000180189818150898385E290E02981FC012C
:10065000208306C085E290E0FC01108201C000000A
:1006600000000F90DF91CF910895CF93DF93CDB726
:10067000DEB781E290E0FC01108282E290E02FEF91
:10068000FC01208384E290E02FEFFC01208385E2CF
:1006900090E0FC01108264E670E080E090E00E944F
:1006A00050010E94A00010921B0110921A010E949A
:1006B0007E010000809112018823E1F31092120163
:1006C000F6CFEE0FFF1F0024001C0BBE0790F69123
:0806D000E02D0994F894FFCF1E
:1006D8000000000200000000770000000000010098
:0206E800000010
:00000001FF
