:100000000C945A000C9479000C9479000C947900AB
:100010000C9479000C9479000C9479000C9479007C
:100020000C9479000C9479000C9479000C9479006C
:100030000C9479000C9479000C9479000C9479005C
:100040000C9479000C9479000C9479000C9479004C
:100050000C9479000C9479000C9479000C9479003C
:100060000C9479000C9479000C9479000C9479002C
:100070000C9479000C9479000C9479000C9479001C
:100080000C9479000C9479000C94790086018D0110
:10009000A301B901CF01E001F101020218022E0211
:1000A0005E025E0264026A025E0264026A025E022C
:1000B00064026A0211241FBECFEFD0E4DEBFCDBFC1
:1000C00011E0A0E0B1E0EAE5F5E000E00BBF02C01E
:1000D00007900D92A231B107D9F721E0A2E1B1E07A
:1000E00001C01D92AA31B207E1F70E9476020C947A
:1000F000AB020C940000CF93DF9300D01F92CDB7DA
:10010000DEB789837B836A8389818A3031F48A816F
:100110009B81BC018DE00E947B0080EC90E0FC01A3
:100120008081882F90E080729927892BB1F386EC2B
:1001300090E02981FC01208380E090E00F900F90F7
:100140000F90DF91CF910895CF93DF93CDB7DEB7B6
:1001500081E890E02BE0FC01208388E890E02DE727
:1001600030E0FC01318320838FE690E022E0FC0147
:10017000208384E890E0FC011182108280910E01BE
:1001800090910F01A0911001B09111018093130182
:1001900090931401A0931501B09316018FE590E0A0
:1001A0002FE530E0F90120812068FC012083000068
:1001B000DF91CF910895CF93DF93CDB7DEB781E87C
:1001C00090E0FC0110820000DF91CF910895CF9361
:1001D000DF93CDB7DEB781E0809312010000DF919D
:1001E000CF910895CF93DF9300D0CDB7DEB79A8338
:1001F00089838091130190911401A0911501B09110
:1002000016010197A109B10980931301909314017C
:10021000A0931501B09316018091130190911401E0
:10022000A0911501B0911601892B8A2B8B2B91F48B
:100230000E94E70080910E0190910F01A0911001A2
:10024000B09111018093130190931401A0931501B3
:10025000B093160100000F900F90DF91CF91089599
:10026000CF93DF9300D000D0CDB7DEB769837A8318
:100270008B839C8389819A81AB81BC8180930E01A1
:1002800090930F01A0931001B093110180910E0182
:1002900090910F01A0911001B09111018093130171
:1002A00090931401A0931501B093160100000F90D4
:1002B0000F900F900F90DF91CF910895CF93DF9320
:1002C0001F92CDB7DEB780E290E0FC018081882FDD
:1002D00090E08170992721E0892B09F020E02983A3
:1002E0008091170190911801CC01A0E0B0E040E0AE
:1002F00050E029E030E0841B950B2817390708F4FB
:10030000C3C08A5B9F4FFC010C94A20282E090E084
:100310009093180180931701BCC08981882339F418
:1003200082E090E09093180180931701B2C084E0BE
:1003300090E09093180180931701809119018F5FCD
:1003400080931901A6C08981882339F483E090E065
:1003500090931801809317019CC085E090E09093E2
:10036000180180931701809119018F5F8093190103
:1003700090C08981882339F481E090E0909318013E
:100380008093170186C086E090E0909318018093D7
:100390001701809119018F5F809319017AC08981BB
:1003A000882339F487E090E0909318018093170137
:1003B00070C084E090E0909318018093170169C0A9
:1003C0008981882339F488E090E090931801809324
:1003D00017015FC085E090E09093180180931701AA
:1003E00058C08981882339F489E090E090931801FE
:1003F000809317014EC086E090E09093180180939F
:10040000170147C08981882339F487E090E09093F1
:100410001801809317013DC082E090E0909318018D
:1004200080931701809119018F5F8093190131C06A
:100430008981882339F488E090E0909318018093B3
:10044000170127C083E090E0909318018093170173
:10045000809119018F5F809319011BC089818823C6
:1004600039F489E090E0909318018093170111C04E
:1004700081E090E090931801809317018091190119
:100480008F5F8093190105C0109218011092170117
:1004900000008091170190911801CC01A0E0B0E01C
:1004A00040E050E029E030E0841B950B2817390725
:1004B000B8F0805B9F4FFC010C94A20285E290E0B3
:1004C00021E0FC0120830DC085E290E022E0FC01E8
:1004D000208307C085E290E024E0FC01208301C076
:1004E000000000000F90DF91CF910895CF93DF932C
:1004F000CDB7DEB781E290E0FC01108282E290E0AD
:100500002FEFFC01208384E290E02FEFFC01208399
:1005100085E290E0FC0110826CE271E080E090E006
:100520000E9430010E94A40010921801109217013D
:100530000E945E010000809112018823E1F3109275
:100540001201F6CFEE0FFF1F0024001C0BBE079018
:0A055000F691E02D0994F894FFCF16
:10055A0000000002000000007B0000000000010013
:02056A0000008F
:00000001FF
