:100000000C9456000C9475000C9475000C947500BB
:100010000C9475000C9475000C9475000C9475008C
:100020000C9475000C9475000C9475000C9475007C
:100030000C9475000C9475000C9475000C9475006C
:100040000C9475000C9475000C9475000C9475005C
:100050000C9475000C9475000C9475000C9475004C
:100060000C9475000C9475000C9475000C9475003C
:100070000C9475000C9475000C9475000C9475002C
:100080000C9475000C9475000C9475007A01810134
:1000900073027A02C5010F0259028102A302A8026B
:1000A000D502DE02AD02C102AD02E70211241FBE7D
:1000B000CFEFD0E4DEBFCDBF11E0A0E0B1E0E2E5DC
:1000C000F6E000E00BBF02C007900D92A231B1072D
:1000D000D9F721E0A2E1B1E001C01D92AD31B20734
:1000E000E1F70E94F2020C9427030C940000CF93D6
:1000F000DF9300D01F92CDB7DEB789837B836A83FD
:1001000089818A3031F48A819B81BC018DE00E9413
:10011000770080EC90E0FC018081882F90E0807275
:100120009927892BB1F386EC90E02981FC0120838B
:1001300080E090E00F900F900F90DF91CF910895A5
:10014000CF93DF93CDB7DEB781E890E02BE0FC01E1
:10015000208388E890E02DE730E0FC0131832083A4
:100160008FE690E022E0FC01208384E890E0FC012F
:100170001182108280910E0190910F01A0911001C7
:10018000B09111018093130190931401A093150174
:10019000B09316018FE590E02FE530E0F901208162
:1001A0002068FC0120830000DF91CF910895CF9358
:1001B000DF93CDB7DEB781E890E0FC01108200004C
:1001C000DF91CF910895CF93DF93CDB7DEB781E074
:1001D000809312010000DF91CF910895CF93DF93B8
:1001E00000D0CDB7DEB79A838983809113019091B7
:1001F0001401A0911501B09116010197A109B1094F
:100200008093130190931401A0931501B0931601EC
:100210008091130190911401A0911501B0911601E4
:10022000892B8A2B8B2B91F40E94E30080910E0185
:1002300090910F01A0911001B091110180931301D1
:1002400090931401A0931501B093160100000F9034
:100250000F90DF91CF910895CF93DF9300D000D01E
:10026000CDB7DEB769837A838B839C8389819A813A
:10027000AB81BC8180930E0190930F01A09310017C
:10028000B093110180910E0190910F01A091100186
:10029000B09111018093130190931401A093150163
:1002A000B093160100000F900F900F900F90DF9108
:1002B000CF910895CF93DF931F92CDB7DEB783E23E
:1002C00090E0FC01808189838091190190911A014D
:1002D000CC01A0E0B0E040E050E027E030E0841B3B
:1002E000950B2817390708F413C18A5B9F4FFC014F
:1002F0000C941E0381E090E090931A018093190101
:100300000CC180E290E0FC018081882F90E0809514
:10031000909583709927019791F485E290E0FC0114
:100320008081893060F482E090E090931A0180939C
:10033000190180911B018F5F80931B0125C080E212
:1003400090E0FC018081882F90E0809590958370EB
:100350009927029791F485E290E0FC01808188233F
:1003600061F083E090E090931A01809319018091ED
:1003700017018F5F8093170107C081E090E0909391
:100380001A0180931901C9C0C8C080E290E0FC0145
:100390008081882F90E080959095837099270197B0
:1003A00039F484E090E090931A0180931901B5C06C
:1003B00080E290E0FC018081882F90E0809590950C
:1003C00083709927029761F483E090E090931A017B
:1003D00080931901809117018F5F809317019DC051
:1003E00080E290E0FC018081882F90E080959095DC
:1003F00083709927039761F4809117018F5F809331
:10040000170187E090E090931A018093190185C04D
:1004100081E090E090931A01809319017EC080E200
:1004200090E0FC018081882F90E08095909583700A
:100430009927029739F485E090E090931A01809310
:1004400019016BC080E290E0FC018081882F90E070
:100450008095909583709927019761F482E090E0F0
:1004600090931A018093190180911B018F5F8093F3
:100470001B0153C080E290E0FC018081882F90E056
:100480008095909583709927039761F480911B0163
:100490008F5F80931B0187E090E090931A01809317
:1004A00019013BC081E090E090931A0180931901FB
:1004B00034C080E290E0FC018081882F90E080953C
:1004C000909583709927892B39F481E090E090937F
:1004D0001A018093190121C086E090E090931A01DF
:1004E000809319011AC084E090E090931A018093E0
:1004F000190113C085E090E090931A0180931901CF
:100500000CC086E090E090931A018093190105C019
:1005100010921A0110921901000080911901909116
:100520001A01CC01A0E0B0E040E050E027E030E06C
:10053000841B950B2817390708F44EC0825B9F4F28
:10054000FC010C941E0385E290E027E0FC0120836F
:1005500010921C011092180140C080911C018F5F05
:1005600080931C0180911C018B3018F089818F5F72
:10057000898310921C0185E290E02981FC0120838F
:100580002CC0809118018F5F809318018091180111
:100590008B3018F08981815089831092180185E28F
:1005A00090E02981FC01208318C089818F5F8983B5
:1005B00085E290E02981FC0120830FC08981815070
:1005C000898385E290E02981FC01208306C085E2D1
:1005D00090E0FC01108201C0000000000F90DF914C
:1005E000CF910895CF93DF93CDB7DEB781E290E04E
:1005F000FC01108282E290E02FEFFC01208384E274
:1006000090E02FEFFC01208385E290E0FC01108256
:1006100064E670E080E090E00E942C010E94A0005F
:1006200010921A01109219010E945A010000809143
:1006300012018823E1F310921201F6CFEE0FFF1F93
:100640000024001C0BBE0790F691E02D0994F8944D
:02065000FFCFDA
:10065200000000020000000077000000000001001E
:02066200000096
:00000001FF
